:020000040800F2
:1000000000000120FD0200080303000809030008A6
:100010002B03000831030008530300080000000010
:100020000000000000000000000000007503000850
:100030007B0300080000000081030008870300081C
:10004000A5030008A5030008A5030008A5030008F0
:10005000A5030008A5030008591400088D14000822
:10006000C1140008F514000829150008A5030008AC
:10007000A5030008A5030008A5030008A5030008C0
:10008000A5030008A5030008A50300080000000060
:100090000000000000000000000000005D150008E6
:1000A000A5030008A5030008A5030008A503000890
:1000B000A5030008A5030008A5030008A503000880
:1000C000A5030008A5030008A5030008A503000870
:1000D000A5030008A5030008A50300080000000010
:1000E00091150008A5030008A50300080000000002
:1000F000000000000000000000000000A503000850
:1001000000000000A5030008A5030008A5030008DF
:1001100000000000000000000000000000000000DF
:10012000A5030008A5030008A5030008A50300080F
:10013000A50300080000000000000000000000000F
:10014000000000000000000000000000A5030008FF
:10015000A5030008A5030008A5030008A5030008DF
:10016000A5030008A503000800000000000000002F
:10017000000000000000000000000000000000007F
:1001800000000000A50300080000000000000000BF
:10019000A503000880B596B000AF00F033F94D4BD1
:1001A0007B6523E07B6D1A1D7A651B683B647B6D64
:1001B0001A1D7A651B68FB637B6D1A1D7A651B68C7
:1001C000BB633B6C7B63FB6B3B63BB6BFB623B6B5F
:1001D000BB6207E07A6B131D7B63BB6A191DB962B2
:1001E00012681A60FA6ABB6A9A42F3D87B6D3A4A7F
:1001F0009342D7D3394B3B6519E03B6D1A1D3A65E5
:100200001B68BB643B6D1A1D3A651B687B64BB6C45
:100210007B627B6C3B627B6AFB6104E0FB691A1DBD
:10022000FA6100221A603A6AFB699A42F6D83B6D7D
:100230002B4A9342E1D300F0F3F83A1D07F108038B
:100240001146184600F0CCF8264A274BD31A9B10CB
:100250003B610023FB6007E0234AFB6852F8233030
:100260009847FB680133FB603A69FB689A42F3DC0C
:100270001E4A1F4BD31A9B103B610023FB6007E013
:100280001B4AFB6852F823309847FB680133FB6038
:100290003A69FB689A42F3DCBB687A6811461846F3
:1002A00000F062F9F864134A134BD31A9B10BB6138
:1002B000BB697B6108E07B69013B0F4A52F8233040
:1002C00098477B69013B7B617B69002BF3DCF86C11
:1002D00000F080F8AC030008C4030008C403000861
:1002E000D4030008D4030008D4030008D403000892
:1002F000D4030008D4030008D403000825480047AD
:1003000000BF80B400AFFEE71EF0040F0CBFEFF398
:100310000880EFF3098071461F4A104700BF80B480
:1003200083B000AF78603960FEE780B400AFFEE7CD
:100330001EF0040F0CBFEFF30880EFF30980714645
:10034000164A104700BF80B483B000AF78603960B0
:10035000FEE71EF0040F0CBFEFF30880EFF30980F7
:1003600071460F4A104700BF80B483B000AF786079
:100370003960FEE780B400AFFEE780B400AFFEE76F
:1003800080B400AFFEE780B400AF00BFBD4680BCC4
:1003900070470000950100081F030008470300088C
:0A03A0006903000880B400AFFEE717
:1003AC00D4150008000000200C000020D415000813
:1003BC0000000010000000100C0000203400002091
:0803CC00000000100000001009
:1003D40080B582B000AF786000F03AF880B483B0A2
:1003E40000AF786039607B6801221A603B68034A79
:1003F4001A6000BF0C37BD4680BC70470000002067
:1004040080B500AF00F028F8024B034A9A6000BFA1
:1004140080BD00BF00ED00E00000000880B500AF23
:1004240000F026F800BF80BD80B400AFBFF34F8F4B
:10043400054BDB6803F4E0620349044B1343CB60D0
:10044400BFF34F8F00BFFDE700ED00E00400FA05A5
:1004540080B500AFFFF7E8FF80B400AF034B4FF067
:1004640000629A6000BFBD4680BC704700ED00E0AA
:1004740080B487B000AF00233B6100237B6102237B
:10048400FB600023BB6002237B60314B9B6803F05D
:100494000C033B613B69042B07D0082B09D0002BCC
:1004A4003DD12C4B2C4A1A603DE02A4B2B4A1A6052
:1004B40039E0274B5B689B0D03F00103BB60244BC1
:1004C4005B6803F03F037B60BB68002B0CD0234ABE
:1004D4007B68B2FBF3F31E4A52689209C2F3080226
:1004E40002FB03F37B610BE01B4A7B68B2FBF3F373
:1004F400174A52689209C2F3080202FB03F37B61B4
:10050400134B5B681B0C03F0030301335B00FB60BC
:100514007A69FB68B2FBF3F30E4A136003E00D4BF8
:100524000D4A1A6000BF0A4B9B681B0903F00F03B6
:100534000B4AD35C3B61074B1A683B6922FA03F30D
:10054400044A136000BF1C37BD4680BC704700BF1F
:1005540000380240080000200024F40000127A0051
:10056400C415000898B500AF00F046FA002000F06A
:1005740051FA012000F04EFA032000F04BFAC74B69
:1005840000220021412000F019FEC54B0022012168
:10059400422000F013FE00F0B5FD002301220021EB
:1005A400442000F08BFA002301220121442000F0B2
:1005B40085FA002301220221442000F07FFA002062
:1005C40000F024FF012000F021FFB64B00221A7036
:1005D400B54B00221A70B54B05221A700022002177
:1005E400442000F071FC00220121442000F06CFC46
:1005F40000220221442000F067FCAC4B1B78042B42
:10060400FBD801A252F823F0FD070008DB0700081D
:10061400D3060008210600085F080008A44B1B78D5
:10062400002B1BD142F274704FF0000100F09EFDCC
:100634009C4B01221A7001220021442000F044FC4A
:1006440001220121442000F03FFC01220221442028
:1006540000F03AFC964B01221A708DE100F0A1FDE6
:100664000A4601464FF4FA734FF00004944208BF5F
:100674008B4204D200220121442000F025FC00F02A
:1006840090FD0A4601464FF4FA634FF00004944289
:1006940008BF8B4204D200220221442000F014FC43
:1006A40000F07FFD0A46014642F210734FF0000449
:1006B400944208BF8B4280F05F817C4B04221A7005
:1006C400784B00221A707A4B00221A7054E1764B50
:1006D4001B78002B40F05281754B1B78002B1BD1EB
:1006E4004FF4FA604FF0000100F040FD6D4B002222
:1006F4001A7000220021442000F0E6FB00220221AF
:10070400442000F0E1FB01220121442000F0DCFB45
:10071400674B01221A7031E100F043FD0A4601469D
:100724004FF4FA734FF00004944208BF8B420FD287
:10073400604B1B78002B0BD100220121442000F0D8
:10074400C3FB5C4B1B780133DAB25A4B1A7036E0A8
:1007540000F027FD0A4601464FF47A734FF0000477
:10076400944208BF8B420FD2524B1B78012B0BD102
:1007740001220121442000F0A7FB4E4B1B780133DA
:10078400DAB24C4B1A701AE000F00BFD0A4601462F
:1007940040F2DC534FF00004944208BF8B420ED267
:1007A400444B1B78022B0AD100220121442000F083
:1007B4008BFB404B1B780133DAB23E4B1A703D4B36
:1007C4001B78032B40F0DA803A4B00221A70374B27
:1007D40005221A70D2E0334B1B78012B40F0D080F5
:1007E400314B01221A7001220221442000F06CFBDB
:1007F4002E4B05221A70C3E02D4B1B78002B16D10B
:100804004FF4FA604FF0000100F0B0FC264B0022D8
:100814001A7000220021442000F056FB002201211E
:10082400442000F051FB224B01221A70AAE000F090
:10083400B8FC0A4601464FF47A734FF00004944220
:1008440008BF8B4280F09E8000220221442000F0E9
:100854003BFB164B05221A7094E0154B1B78002BBA
:100864002AD14FF4FA604FF0000100F07FFC0D4BE9
:1008740000221A7000220021442000F025FB0022EF
:100884000221442000F020FB01220121442000F039
:100894001BFB074B01221A7075E000BF9509000885
:1008A400C9090008100000201200002011000020D7
:1008B4000D0000200E00002000F073FC0A460146E3
:1008C4004FF4FA734FF00004944208BF8B420FD2E6
:1008D4002D4B1B78002B0BD100220121442000F06A
:1008E400F3FA294B1B780133DAB2274B1A7036E03E
:1008F40000F057FC0A4601464FF47A734FF00004A7
:10090400944208BF8B420FD21F4B1B78012B0BD193
:1009140001220121442000F0D7FA1B4B1B7801333C
:10092400DAB2194B1A701AE000F03BFC0A46014691
:1009340040F2DC534FF00004944208BF8B420ED2C5
:10094400114B1B78022B0AD100220121442000F014
:10095400BBFA0D4B1B780133DAB20B4B1A700A4BFE
:100964001B78032B06D1084B00221A70074B052273
:100974001A7008E000BF06E000BF3EE600BF3CE698
:1009840000BF3AE600BF38E60F0000201100002047
:1009940080B400AF084B1B78012B03D1074B022214
:1009A4001A7002E0054B03221A70054B00221A70DC
:1009B40000BFBD4680BC704710000020110000201D
:1009C4000D00002080B400AF084B1B78012B03D12D
:1009D400074B00221A7002E0054B01221A70054BE6
:1009E40000221A7000BFBD4680BC70471200002070
:1009F400110000200D00002080B400AF044B1B68E0
:100A0400034A43F00103136000BFBD4680BC704736
:100A14000038024080B485B000AF0346FB71FB7917
:100A24005B09FB73FB7903F01F03BB73FB7B032B95
:100A340036D801A252F823F04D0A0008630A0008D0
:100A4400790A00088F0A0008184B1B68BA7B012139
:100A540001FA02F21146154A0B43136021E0144BCC
:100A64001B68BA7B012101FA02F21146104A0B43BA
:100A7400136016E00F4B1B68BA7B012101FA02F2E6
:100A840011460C4A0B4313600BE00B4B1B68BA7BFB
:100A9400012101FA02F21146074A0B43136000E0F8
:100AA40000BF00BF1437BD4680BC704730380240D9
:100AB40034380240403802404438024090B482B096
:100AC40000AF0446084611461A462346FB71034606
:100AD400BB710B467B7113463B71FB79413B072B82
:100AE40000F2E78101A252F823F000BF110B0008C5
:100AF400A90B0008410C0008D90C0008710D00086E
:100B0400B70E0008B70E00081F0E0008A64B1B689E
:100B1400BA795200032101FA02F2D2431146A24AE1
:100B24000B401360A04B1B687979BA79520001FA23
:100B340002F211469C4A0B4313607B79002B18D0B8
:100B4400012B00D02DE0984B5B68BA79012101FAA2
:100B540002F2D2431146944A0B405360924B5B68B5
:100B64003979BA7901FA02F211468F4A0B4353607C
:100B740017E08D4BDB68BA795200032101FA02F2C7
:100B8400D2431146884A0B40D360874BDB683979DE
:100B9400BA79520001FA02F21146834A0B43D36038
:100BA40000BF87E1814B1B68BA795200032101FA27
:100BB40002F2D24311467D4A0B4013607B4B1B6803
:100BC4007979BA79520001FA02F21146774A0B4355
:100BD40013607B79002B18D0012B00D02DE0734BD0
:100BE4005B68BA79012101FA02F2D24311466F4AD5
:100BF4000B4053606D4B5B683979BA7901FA02F2A4
:100C040011466A4A0B43536017E0684BDB68BA79B4
:100C14005200032101FA02F2D2431146634A0B4007
:100C2400D360624BDB683979BA79520001FA02F277
:100C340011465E4A0B43D36000BF3BE15C4B1B682B
:100C4400BA795200032101FA02F2D2431146584AFA
:100C54000B401360564B1B687979BA79520001FA3C
:100C640002F21146524A0B4313607B79002B18D0D1
:100C7400012B00D02DE04E4B5B68BA79012101FABB
:100C840002F2D24311464A4A0B405360484B5B6818
:100C94003979BA7901FA02F21146454A0B43536095
:100CA40017E0434BDB68BA795200032101FA02F2E0
:100CB400D24311463E4A0B40D3603D4BDB68397941
:100CC400BA79520001FA02F21146394A0B43D36051
:100CD40000BFEFE0374B1B68BA795200032101FAD9
:100CE40002F2D2431146334A0B401360314B1B6866
:100CF4007979BA79520001FA02F211462D4A0B436E
:100D040013607B79002B18D0012B00D02DE0294BE8
:100D14005B68BA79012101FA02F2D2431146254AED
:100D24000B405360234B5B683979BA7901FA02F2BC
:100D34001146204A0B43536017E01E4BDB68BA7917
:100D44005200032101FA02F2D2431146194A0B4020
:100D5400D360184BDB683979BA79520001FA02F290
:100D64001146144A0B43D36000BFA3E0124B1B6827
:100D7400BA795200032101FA02F2D24311460E4A13
:100D84000B4013600C4B1B687979BA79520001FA55
:100D940002F21146084A0B4313607B79002B23D0DF
:100DA400012B0BD038E000BF0000024000040240D9
:100DB40000080240000C024000100240404B5B68F7
:100DC400BA79012101FA02F2D24311463C4A0B409E
:100DD40053603B4B5B683979BA7901FA02F21146E8
:100DE400374A0B43536017E0354BDB68BA7952003E
:100DF400032101FA02F2D2431146314A0B40D36077
:100E04002F4BDB683979BA79520001FA02F21146A4
:100E14002B4A0B43D36000BF4CE02A4B1B68BA79C2
:100E24005200032101FA02F2D2431146254A0B4033
:100E34001360244B1B687979BA79520001FA02F2E3
:100E44001146204A0B4313607B79002B18D0012BE9
:100E540000D02DE01B4B5B68BA79012101FA02F244
:100E6400D2431146174A0B405360164B5B683979DD
:100E7400BA7901FA02F21146124A0B43536017E0A1
:100E8400104BDB68BA795200032101FA02F2D24313
:100E940011460C4A0B40D3600A4BDB683979BA79A6
:100EA400520001FA02F21146064A0B43D36000BF16
:100EB40000E000BF00BF0837BD4690BC704700BFCC
:100EC40000100240001C024080B483B000AF03460F
:100ED400FB710B46BB7113467B71FB79413B072BBE
:100EE40000F2FE8001A252F823F000BF110F0008A7
:100EF4005F0F0008AD0F0008FB0F00084910000841
:100F0400E5100008E510000897100008774B1B68EF
:100F1400BA795200032101FA02F21A40BB795B004C
:100F240022FA03F3012B16D1704B5B69BA790121C4
:100F340001FA02F2D24311466C4A0B4053616B4BE7
:100F44005B697979BA7901FA02F21146674A0B436F
:100F540053610023C5E00123C3E0654B1B68BA79E4
:100F64005200032101FA02F21A40BB795B0022FA13
:100F740003F3012B16D15E4B5B69BA79012101FAA7
:100F840002F2D24311465A4A0B405361584B5B69F3
:100F94007979BA7901FA02F21146554A0B43536141
:100FA40000239EE001239CE0524B1B68BA79520057
:100FB400032101FA02F21A40BB795B0022FA03F31F
:100FC400012B16D14B4B5B69BA79012101FA02F26C
:100FD400D2431146474A0B405361464B5B697979CA
:100FE400BA7901FA02F21146424A0B4353610023D3
:100FF40077E0012375E0404B1B68BA795200032166
:1010040001FA02F21A40BB795B0022FA03F3012BC6
:1010140016D1394B5B69BA79012101FA02F2D24344
:101024001146354A0B405361334B5B697979BA7980
:1010340001FA02F21146304A0B435361002350E097
:1010440001234EE02D4B1B68BA795200032101FAAB
:1010540002F21A40BB795B0022FA03F3012B16D18A
:10106400264B5B69BA79012101FA02F2D243114697
:10107400224A0B405361214B5B697979BA7901FAB1
:1010840002F211461D4A0B435361002329E0012358
:1010940027E01B4B1B68BA795200032101FA02F2C4
:1010A4001A40BB795B0022FA03F3012B16D1144BCF
:1010B4005B69BA79012101FA02F2D2431146104A5E
:1010C4000B4053610E4B5B697979BA7901FA02F2EC
:1010D40011460B4A0B435361002302E0012300E055
:1010E40000BF18460C37BD4680BC70470000024064
:1010F4000004024000080240000C024000100240BC
:10110400001C024080B500AF4020FFF783FC4FF085
:1011140080431B684FF0804223F0100313604FF0AC
:1011240080431B684FF0804243F0800313604FF00C
:1011340080431B684FF0804223F4087313604FF020
:1011440080431B684FF0804223F4807313604FF098
:1011540080431B684FF0804243F4007313604FF0E8
:10116400804343F67F629A6200BF80BD80B483B03F
:1011740000AFC7E900013B684FF08042013BD362F6
:101184004FF080431B684FF0804243F0010313602B
:101194004FF0804300225A6200BF0C37BD4680BC2A
:1011A400704790B400AF4FF080435B6A4FF0000487
:1011B40018462146BD4690BC7047000080B584B0F7
:1011C40000AF3B600346FB710B46BB7113467B715A
:1011D4006E20FFF71FFCFB79413B032B16D801A2BD
:1011E40052F823F0F9110008FF1100080512000855
:1011F4000B1200080023FB6009E00123FB6006E0FA
:101204000223FB6003E00323FB6000E000BFBB7923
:101214000F2B57D801A252F823F000BF6112000827
:101224006112000861120008611200087B120008B4
:101234007B1200087B1200087B120008951200083C
:10124400951200089512000895120008AF120008C4
:10125400AF120008AF120008AF120008614B9A6881
:10126400BB7903F003039B00F96801FA03F35D49BA
:1012740013438B6027E05B4BDA68BB7903F003030D
:101284009B00F96801FA03F356491343CB601AE053
:10129400544B1A69BB7903F003039B00F96801FA04
:1012A40003F3504913430B610DE04E4B5A69BB796C
:1012B40003F003039B00F96801FA03F3494913435C
:1012C4004B6100E000BF7B79012B15D0022B24D0A9
:1012D400002B00D03CE0444BDB68BA79012101FAD1
:1012E40002F21146404A0B43D360B979F8790123DD
:1012F4000022FFF7E3FB2BE03B4B9B68BA7901210B
:1013040001FA02F21146384A0B439360B979F8792D
:1013140002230022FFF7D2FB1AE0334BDB68BA79D1
:10132400012101FA02F211462F4A0B43D3602E4BDE
:101334009B68BA79012101FA02F211462A4A0B4349
:101344009360B979F87901230022FFF7B7FB00BF56
:10135400BB790F2B3ED801A252F823F0A113000849
:10136400A9130008B1130008B9130008C113000839
:10137400C9130008C9130008C9130008C9130008D9
:10138400C9130008D1130008D1130008D1130008B1
:10139400D1130008D1130008D1130008134A3B6885
:1013A400136018E0124A3B68136014E0114A3B686A
:1013B400136010E0104A3B6813600CE00F4A3B686E
:1013C400136008E00E4A3B68136004E00D4A3B6872
:1013D400136000E000BF0C4ABB79137000BF1037E4
:1013E400BD4680BD00380140003C0140240000207F
:1013F40014000020300000202C00002018000020E1
:10140400200000201C0000202800002080B483B0AD
:1014140000AF0346FB710D4B1B68FA79012101FAF9
:1014240002F21146094A0B431360094B1B68FA790F
:101434000632012101FA02F21146054A0B431360F8
:1014440000BF0C37BD4680BC704700BF003C014064
:1014540000E100E080B500AF084B1B689847084BDB
:101464001B78DBB21A46012303FA02F2054B5B69CF
:101474001146044A0B43536100BF80BD2400002081
:1014840028000020003C014080B500AF084B1B68D9
:101494009847084B1B78DBB21A46012303FA02F281
:1014A400054B5B691146044A0B43536100BF80BD81
:1014B4001400002028000020003C014080B500AF4B
:1014C400084B1B689847084B1B78DBB21A4601236C
:1014D40003FA02F2054B5B691146044A0B4353615C
:1014E40000BF80BD3000002028000020003C0140E7
:1014F40080B500AF084B1B689847084B1B78DBB2DC
:101504001A46012303FA02F2054B5B691146044AA9
:101514000B43536100BF80BD2C0000202800002035
:10152400003C014080B500AF084B1B689847084B4E
:101534001B78DBB21A46012303FA02F2054B5B69FE
:101544001146044A0B43536100BF80BD18000020BC
:1015540028000020003C014080B500AF084B1B6808
:101564009847084B1B78DBB21A46012303FA02F2B0
:10157400054B5B691146044A0B43536100BF80BDB0
:101584002000002028000020003C014080B500AF6E
:10159400084B1B689847084B1B78DBB21A4601239B
:1015A40003FA02F2054B5B691146044A0B4353618B
:1015B40000BF80BD1C00002028000020003C01402A
:1015C40000000000000000000102030406070809EF
:0C15D4000C000020000000000024F400C7
:040000050800019559
:00000001FF
